:020000040800F2
:10380000005B00207D3A0008892F0108A7A9000865
:103810003DCE00087D670008A58501080000000076
:10382000000000000000000000000000F565010835
:10383000916A000800000000C52F010855690108C1
:10384000973A0008973A0008973A00086D3B01083C
:10385000973A0008973A0008973A0008973A000804
:10386000973A0008973A0008973A0008973A0008F4
:10387000973A0008973A0008973A0008973A0008E4
:10388000973A0008973A0008973A0008973A0008D4
:10389000973A0008973A0008973A0008973A0008C4
:1038A00000000000973A0008973A0008973A00088D
:1038B0003D7E0108973A0008973A0008973A0008B9
:1038C000973A0008973A0008973A0008973A000894
:1038D000973A00083584010875840108973A000872
:1038E000196B000809390108973A0008973A00084F
:1038F000973A000800F002F800F0B0F80AA090E84B
:10390000000C82448344AAF10107DA4501D100F09A
:10391000A5F8AFF2090EBAE80F0013F0010F18BFB7
:10392000FB1A43F001031847449C0100649C01000A
:103930000A444FF0000C10F8013B13F0070408BFD5
:1039400010F8014B1D1108BF10F8015B641E05D073
:1039500010F8016B641E01F8016BF9D113F0080F28
:103960001EBF10F8014BAD1C0C1B09D16D1E58BFBA
:1039700001F801CBFAD505E014F8016B01F8016BF1
:103980006D1EF9D59142D6D3704700000023002464
:1039900000250026103A28BF78C1FBD8520728BF5F
:1039A00030C148BF0B6070476E2901F094817029C7
:1039B00000F06784662919F03080652919F02D80A0
:1039C000672919F02A80612919F0298003681B0AE8
:1039D00028BF41F08001692900F0D883642900F0F4
:1039E000D583752900F0D2836F2901F07A82782976
:1039F00000F03384E92901F01582E42901F01282F4
:103A0000F52901F00F82EF2901F07782F82900F003
:103A100032840368DB0928BF41F08001632901F08B
:103A20009681732901F09B81E32901F0F786F32940
:103A300001F0FC86002070471FB502F003F9040076
:103A40000020002117F04EFF401C60600020002184
:103A500017F032FFE0601FBD10B510BD02F0C4F8D2
:103A60001146FFF7E9FF15F02BF902F0A1F903B4B5
:103A7000FFF7F2FF03BC14F026FF0000094880475F
:103A800009480047FEE7FEE7FEE7FEE7FEE7FEE740
:103A9000FEE7FEE7FEE7FEE704480549054A064B58
:103AA000704700005D690108F538000800550020E6
:103AB000005B002000570020005700202DE9F04F48
:103AC0004FF0000C4FF0000301EB1C6EBEF90250EA
:103AD000BEF900400EF5807EBEF90290BEF900806E
:103AE0000EF5807EBEF90270BEF900600EF5807E94
:103AF000BEF902B0BEF900A00EF5807ED044D944D4
:103B0000A8EB4A0AA9EB4B0B4FEAA4044FEAA50520
:103B100004EBA60405EBA705A4EB6606A5EB670777
:103B200004EBA80405EBA905A4EB6808A5EB69095B
:103B300006EBAB06A7EBAA07A6EB6B0B07EB6A0A33
:103B4000458020F8044B478020F8046BA0F80290D1
:103B500020F8048BA0F802A020F804BB03F10103B5
:103B600093FAA3FC402BAFD1A0EB82014FF01003DE
:103B700012090FF2361000F1000006B403EB430CFB
:103B80006144A2F5803202EB8332B1F90250B1F9FF
:103B90000040A1EB0301B0F902B0B0F900A000F1C0
:103BA0000400A5EB040E0EFB0BFC0AEB4B0E05FB11
:103BB0000ACB04FB0ECAB1F90250B1F90040A1EBE7
:103BC0000301B0F90290B0F9008000F10400A5EB08
:103BD000040E0EFB09FC08EB490E05FB08C904FBAB
:103BE0000EC8B1F90250B1F90040A1EB0301B0F9E0
:103BF0000270B0F9006000F10400A5EB040E0EFBAA
:103C000007FC06EB470E05FB06C704FB0EC6B1F921
:103C10000250B1F9004001F10001D044D944A8EBB1
:103C20004A0AA9EB4B0B4FEAA4044FEAA50504EBA3
:103C3000264405EB2745A4EBE636A5EBE73704EB76
:103C4000284405EB2945A4EBE838A5EBE93906EB58
:103C50002B46A7EB2A47A6EBEB3B07EBEA3A4D8056
:103C60000C8019444F800E801944A1F80290A1F8ED
:103C700000801944A1F802A021F804BBB2F58032FB
:103C800083DA03EB430C6144A2F101025FEA024EC6
:103C900018BFA0EB0C007FF476AF06BC4FEA83039D
:103CA00092087FF46AAFBDE8F08F0040000000404A
:103CB0000000004000005DDD213BA3227E180000D3
:103CC000412D7EA5412D0000412D00C000405DDD4D
:103CD00082E75DDD213B7EA5412D004000000040D4
:103CE000000000400000AA2A94126B3946064932AF
:103CF0007C0CA8118E2349327C0CA3227E1821F75C
:103D00007931AA2A9412A8118E235DDD213BA322CA
:103D10007E180000412D95C6B13F461A2B1E58EE65
:103D20003735BEB4C53EA8118E235DDD213B63A9A6
:103D30007138DF089A28B7CDC53E7EA5412D000019
:103D4000412D00C0004063A92B1E21F77931BEB47C
:103D5000C53EBEB47C0C58EE373561AC213B95C6F0
:103D6000BAF9BAE571383BA737355DDD82E75DDD2D
:103D7000213B7EA5412D21F766D756D53F3D3BA778
:103D80008E23A811C9CAB7CDC53E61AC7E18AA2A38
:103D9000C1C295C6B13FBEB47C0C004000000040DB
:103DA0000000004000001E3BB504693E9201C83C83
:103DB0002403EB356409C83C24036B3946066C3098
:103DC000060E1E3BB504EB356409AA2A94126B3922
:103DD000460649327C0CAE240917AF37D607882E29
:103DE0008D0F7E1E5D1BEB356409AA2A94122418E0
:103DF0008C1F1E34F10AB3269015A8118E23493268
:103E00007C0CA3227E18140B60276C30060E7E1EDD
:103E10005D1B7104FB2A882E8D0F461A2B1EC7FDD1
:103E20005A2E9D2C1211FE15E72021F77931AA2A6E
:103E30009412A8118E2387F05334B2281314480D1E
:103E4000202602EAE536B3269015DF089A289CE37F
:103E50002B39AE2409177104FB2A5DDD213BA32217
:103E60007E180000412D4ED7C53C9320EF198FFBE3
:103E70006C2F78D1153E7E1E5D1B21F77931E2CB88
:103E80000F3F641CC61CB8F2683395C6B13F461A92
:103E90002B1E58EE373597C1FB3F24188C1F02EAC2
:103EA000E536F0BCEC3FFE15E720BAE57138A6B860
:103EB000853FD5133D2282E1DB39BEB4C53EA81152
:103EC0008E235DDD213B40B1AF3D790FDA244DD922
:103ED000423C2EAE423C480D202656D53F3D8EAB8F
:103EE000823A140B602778D1153E63A97138DF0838
:103EF0009A28B7CDC53EB1A71236A906CE2915CA54
:103F00004F3F78A668337104FB2A95C6B13FBCA524
:103F100076303902212C38C3EC3F7EA5412D0000BC
:103F2000412D00C00040BCA5CE29C7FD5A2EF0BCD3
:103F3000EC3F78A620268FFB6C2F09BAB13FB1A7C2
:103F40003D2257F976304DB74F3F63A92B1E21F71D
:103F50007931BEB4C53E8EABEF19ECF474325EB26B
:103F6000153E2EAE9015B8F268332DB03F3D40B1EE
:103F7000121187F053342EAE423CBEB47C0C58EE86
:103F8000373561AC213BA6B8D6072BEC1236C8AA50
:103F9000DB39F0BC240302EAE53663A9713897C126
:103FA0006EFEDCE7B03734A8E53695C6BAF9BAE557
:103FB00071383BA73735E2CB0FF59CE32B3978A658
:103FC000683378D173F082E1DB39EDA579314ED7D2
:103FD000EDEB6DDF823A99A56C2F5DDD82E75DDD4B
:103FE000213B7EA5412D9CE33AE352DBB63B99A5EC
:103FF000FB2A02EA19DF4DD9423CEDA59A2887F049
:1040000026DB4ED7C53C78A6202621F766D756D5A5
:104010003F3D3BA78E23C7FDDFD363D3AF3D34A81D
:10402000E720710494D078D1153E63A92B1E140BA0
:104030008CCD94CF723EC8AA5D1BA811C9CAB7CD5A
:10404000C53E61AC7E18241850C8E2CB0F3F2EAE9F
:1040500090157E1E25C615CA4F3F2DB09412AE2472
:104060004AC451C8853F5EB28D0FAA2AC1C295C607
:10407000B13FBEB47C0C6C308EC1E2C4D43F4DB7AE
:104080006409EB35B1C038C3EC3F09BA46061E3BA4
:104090002CC097C1FB3FF0BC240370471CB50C46F5
:1040A000064B7B4469460090204600F02EFE0446F5
:1040B0000020694600F03CFE20461CBD8B0C000031
:1040C0000FB41CB5084B06AA7B44694600900598BE
:1040D00000F01BFE04460020694600F029FE204641
:1040E0001CBC5DF814FB0000650C000070B50446B4
:1040F00085690068C10601D5302600E02026C0078A
:1041000007D070BDD4E9012130469047206A401C99
:1041100020626D1EF6D570BD70B5044685690078C5
:10412000C00707D170BDD4E9012120209047206A43
:10413000401C20626D1EF6D570BD70B50C4605465C
:10414000012A05D02878800600D5EA69002302E01C
:10415000012305E05B1C934202D2E05C0028F9D108
:10416000A869E618C01AA861286A18442862284677
:10417000FFF7BCFF04E0D5E9012114F8010B9047DB
:10418000B442F8D32846FFF7C7FF70BD2DE9F041D0
:104190000646002410687529314616A510D000F097
:1041A0002FFD002802DA404213A507E031688A0794
:1041B00001D512A502E0490704D511A5012401E0AB
:1041C00000F027FD00210A2206F1240709E0B0FBD8
:1041D000F2FCB0FBF2F302FB1C00303078541846BE
:1041E000491C0028F3D123462A463046BDE8F04159
:1041F00000F018BD000000002D0000002B000000A2
:1042000020000000F0B40D460188090502D5214CBC
:104210007C4402E01F4C7C440E34002100F1240653
:1042200008E002F00F071209E75D42EA03721B097A
:104230007754491C52EA0307F3D10278002312078E
:1042400004D5702D06D009B1022311342246F0BCEA
:1042500000F0E8BC01231034F8E770B504460D46C1
:104260002146106800F0D5FC024629462046BDE8EC
:1042700070400023C6E7D21D22F00703D3E90023D4
:10428000C0E70368126843F0200303600823C3619A
:104290000023B7E7B08D01002DE9F05F89460446A1
:1042A0004FF0000ADFF874B1FB44C0F820A02046AC
:1042B000E1688847002874D0252806D0D4E9012178
:1042C0009047206A401C2062F1E700265F462046A6
:1042D000E16888472028054607DB312D05D278198B
:1042E00010F8200C08B10643F1E7B00701D526F01D
:1042F0000406C4F81CA00027C4F818A02A2D09D071
:10430000284614F0D9FA38B304EB8708303DC8F8D2
:10431000185019E059F8041B204604EB87029161FC
:10432000E1688847012F054618D1E069002820DAA6
:1043300026F020061DE0D8F8180000EB800005EB01
:1043400040003038C8F818002046E1688847054624
:1043500014F0B2FA0028EED1012F0AD02E2D08D188
:104360002046E16888477F1C0546022F46F020065C
:10437000C4DBA069002803DA404246F00106A061D0
:10438000F00701D026F010066C2D0BD0682D09D057
:104390004C2D39D06A2D35D0742D35D07A2D33D0AF
:1043A00016E038E0E1682F4620468847B8420546C7
:1043B00009D16C2F26D04FF48060E1680643204677
:1043C0008847054604E06C2F1AD04FF480700643EE
:1043D0000DB3A5F14100192802D8203546F4006636
:1043E0004A462946204626604E46FFF7DDFA80B150
:1043F00001280BD0F61D26F0070000F1080956E74A
:104400004020E4E78020D8E70020D6E706F1040941
:104410004DE7284652E7206ABDE8F09F408D010035
:104420000FB400B58DB010A9099000910B904FF01A
:10443000FF300A9000200C90064878440690064809
:1044400078446A4607900F9909A800F075FD0DB0F1
:104450005DF814FB1B0B0000330B00002DE9FF5F20
:104460001D464FF0FF3B91464FF000085F46D5E9EF
:104470000146A96901987F1C8847296A82468847B6
:104480000028F6D1BAF1FF3F0CD0002E24F4C0640E
:1044900019DD600614D5BAF12B0F09D0BAF12D0F32
:1044A0000ED103E0584604B0BDE8F09F44F48064A8
:1044B000A96901987F1C8847761E8246002E02DD7E
:1044C000BAF1300F03D0B9F1000F26D032E0A9695C
:1044D000761E01987F1C44F400748847002E8246A3
:1044E00005DDBAF1780F06D0BAF1580F03D0B9F153
:1044F000000F10D01EE0B9F1000F02D0B9F1100F7B
:1045000018D1A969761E01987F1C24F4007488478D
:104510008246102002E0082000E00A20814609E0DF
:10452000A96908FB0908761E01987F1C44F40074F1
:1045300088478246002E05DD4946504600F0E8FCDB
:104540000028EDDAE96901988847A00502D46FF0E8
:104550000100A8E7E00725D1600613D5600502D564
:10456000C8F1000000E0404629680A1D2A60096879
:10457000220501D5087015E0220701D5088011E059
:1045800008600FE02868011D29600068210502D538
:1045900080F8008006E0210702D5A0F8008001E045
:1045A000C0F8008038467EE72DE9FF5F4FF0000835
:1045B0009946144646469169D2E901A7DDF838B01C
:1045C00001988847054659EA0B0005D009E0A16922
:1045D0000198761C88470546216A284688470028A6
:1045E000F5D1681C03D05FEACA7005D015E04FF022
:1045F000FF3004B0BDE8F09F2068011D2160D0F8B5
:1046000000800AE05FEACA7001D108F8015BA16985
:10461000761C01987F1E88470546002F1ADD681C0E
:1046200018D0B9F1000F0DD0E81705EBD06042119A
:1046300020F01F0059F822102A1A01209040014250
:10464000E0D107E0BBF1000FDCD12846216A8847A2
:104650000028D7D0E16901988847BBF1000F07D146
:10466000002E05DD5FEACA7002D1002188F8001033
:10467000A068B84203DDBBF1000F03D017B16FF0A3
:104680000100B6E73046B4E730B505460B462A468A
:1046900013F8014B12F8010B08B1A042F8D01CB17D
:1046A000002802D06D1CF1E7284630BD40EA010326
:1046B00010B59B070FD1042A0DD310C808C9121FCB
:1046C0009C42F8D020BA19BA884201D9012010BD05
:1046D0004FF0FF3010BD1AB1D30703D0521C07E0D2
:1046E000002010BD10F8013B11F8014B1B1B07D136
:1046F00010F8013B11F8014B1B1B01D1921EF1D1A7
:10470000184610BD10B5431C02E010F8011B71B132
:104710008107FAD14FF0013202C88C1A8C4314EA97
:10472000C211F9D0C01A0A0603D0C01E10BDC01AAB
:1047300010BD0A0401D0801E10BD0902FCD0401E2D
:1047400010BD40EA010370B59B072ED14FF0013632
:10475000042A2AD308C810C99D1B9D43121F15EABD
:10476000C61517D0D8B2E1B2401A50EA056110D18F
:1047700098B2A1B2401A50EA05410AD123F07F4015
:1047800024F07F41401A50EA052102D1180EA0EB17
:10479000146070BDA342DBD018BA21BA884201D997
:1047A000012070BD4FF0FF3070BD0AB9002070BD10
:1047B00010F8013B11F8014B63B1A3420AD1521E1C
:1047C00008D010F8013B11F8014B1BB1A34201D1F5
:1047D000521EEDD1181B70BD032A40F2308010F03C
:1047E000030C00F0158011F8013BBCF1020F62448C
:1047F00098BF11F801CB00F8013B38BF11F8013B1D
:10480000A2F1040298BF00F801CB38BF00F8013BC9
:1048100011F0030300F02580083AC0F0088051F839
:10482000043B083A51F804CBA0E80810F5E7121D44
:104830005CBF51F8043B40F8043BAFF30080D20763
:1048400024BF11F8013B11F801CB48BF11F8012B2F
:1048500024BF00F8013B00F801CB48BF00F8012B52
:10486000704710B5203AC0F00B80B1E81850203ADC
:10487000A0E81850B1E81850A0E81850BFF4F5AF00
:104880005FEA027C24BFB1E81850A0E8185044BF8A
:1048900018C918C0BDE810405FEA827C24BF51F8F7
:1048A000043B40F8043B08BF7047D20728BF31F8EB
:1048B000023B48BF11F8012B28BF20F8023B48BF3C
:1048C00000F8012B704702F0FF0343EA032242EA9B
:1048D000024200F002B84FF000020429C0F012803A
:1048E00010F0030C00F01B80CCF1040CBCF1020FA3
:1048F00018BF00F8012BA8BF20F8022BA1EB0C0178
:1049000000F00DB85FEAC17C24BF00F8012B00F86D
:10491000012B48BF00F8012B70474FF0000200B593
:10492000134694469646203922BFA0E80C50A0E8D2
:104930000C50B1F12001BFF4F7AF090728BFA0E880
:104940000C5048BF0CC05DF804EB890028BF40F84C
:10495000042B08BF704748BF20F8022B11F0804F8E
:1049600018BF00F8012B704710B5044610F0030F74
:1049700008BF11F0030F40F015804FF0013E121FE9
:10498000C0F20E8051F8043BA3EB0E0C2CEA030C92
:104990001CEACE1C08BF40F8043BF0D0A1F1040192
:1049A00002F10402521E08DB11F8013B002B00F853
:1049B000013BF7D11146FFF78EFF204610BD0000E6
:1049C0004FF0013C50F8042B51F8043B9A4221D19E
:1049D000A2EB0C03934313EACC1317D150F8042B2A
:1049E00051F8043B9A4215D1A2EB0C03934313EA0E
:1049F000CC130BD150F8042B51F8043B9A4209D147
:104A0000A2EB0C03934313EACC13DBD04FF000006E
:104A1000704700BFD01A01BAB1FA81F101F0180154
:104A200022FA01F0CB40C1F12001DBB2C0B2C01AC2
:104A30002CFA01F3D11A914311EAC311E6D1704760
:104A4000014900F0A9BA00007054002010B50368B5
:104A50001C1404EB21449BB289B2194494FBF2F379
:104A600002FB134394FBF2F401EB034393FBF2F1DB
:104A700002FB113193FBF2F301E05B1E11440029AC
:104A8000FBDB016003EB044010BDF0B504464FF0C2
:104A9000FF3585B00068049060680290A0680390BC
:104AA000E068019020690090666906F18040B0F1ED
:104AB000004F7CD83C22002104A8FFF7C7FF3C220E
:104AC000014602A8FFF7C2FF1822014603A8FFF71C
:104AD000BDFF411E40F2B55201A8FFF7B7FF0C22FF
:104AE000074668460021FFF7B1FF414B00EB870006
:104AF000304400267B4411E0511A01910099491C71
:104B00000229009102D00C2908D105E0810705D0C7
:104B10000199491C019101E0401C00960099019AFD
:104B2000595C9142E8DD0099012906D11C2A04D183
:104B3000810702D00221CDE90016A0F146018B29A0
:104B40003CD2DDE90061002202E09F5C521C394446
:104B5000B242FADB012E02DD820700D0491E40F28C
:104B6000B55340F26D16C21700EB927292105A4381
:104B700000F0030303FB062283070A4400D1521E00
:104B8000039E02EB4203049F06EBC303029EC3EBAA
:104B9000031306EB8303174E33441E149BB2C6EB7C
:104BA0000616C3EB0313B60007EB830300E005E032
:104BB00006EB134666F31F43360C02D0284605B0B9
:104BC000F0BD80C4029E40C4039E40C4019E761C7A
:104BD00044F80C6B009E44E902600720521C92FBD3
:104BE000F0F600FB162084E823001846E7E70000F3
:104BF00010850100A039CEFD70477047704770479F
:104C000009684A0501D540B27047C905FCD500B214
:104C1000704709684A0501D5C0B27047C905FCD57F
:104C200080B270472DE9F0470D46994692460446FA
:104C300000F124080168880604D5E06921F010011C
:104C4000216000E00120A84201DD471B00E00027B1
:104C5000A1697A1902EB0900081AA0612078C00640
:104C600002D42046FFF742FA002608E0D4E90121E9
:104C70001AF806009047206A401C761C20624E45B8
:104C8000F4DB2078C0060AD52046FFF72FFA06E0AD
:104C9000D4E9012130209047206A401C2062381E50
:104CA000A7F10107F4DC07E0D4E9012118F80500B9
:104CB0009047206A401C2062281EA5F10105F3DC04
:104CC0002046FFF729FA2078000602D50220BDE829
:104CD000F0870120FBE711680268006A530501D5DF
:104CE00008700AE0D30501D5088006E0130603D555
:104CF000C217C1E9000200E008600120704700000F
:104D000001694A1C02610878704700B58FB0CDE98F
:104D100001310021059105497944CDE9031011467F
:104D20006846FFF7B9FA0FB000BD0000E5FFFFFFCE
:104D30000A6802F8010B0A60704710B5436913B1A5
:104D4000AFF3008001E0FFF7F8F9012010BD127801
:104D500000F124010A7000224A700122EDE7116877
:104D60004FF0FF32E9E700002DE9FF5F15468A4664
:104D70000446DFF8AC80F8440027D8E900103E462E
:104D8000CDE9001010E03AF816106A4602A800F0CB
:104D90000BFF411C07D02178890603D5E269391839
:104DA00091420DD80744761C2078800602D5E06930
:104DB000B84205DDAE42E6DB3AF816000028E2D143
:104DC000A069C01BA0612046FFF790F9D8E9001048
:104DD000CDE90010002017E03AF818106A4602A842
:104DE00000F0E2FEB0F1FF3F81460BD000250DF14F
:104DF000080B05E0D4E901211BF8050090476D1C64
:104E00004D45F7D308F10100B0428046E4DB206A4B
:104E1000384420622046FFF77FF9BDE8FF9F00007D
:104E2000868201002DE9F0418046D21D22F0070262
:104E30000025D2E90002F52915A614D0011E72F151
:104E4000000106DA0023D0EB030063EB020211A697
:104E500008E0D8F800108B0701D50FA602E049073B
:104E600001D50EA601251146002408F1240704E00F
:104E700000F0EEF830323A55641C50EA0102F7D1E6
:104E80002B46324621464046BDE8F041FFF7CABEF8
:104E9000000000002D0000002B000000200000009A
:104EA00030B4002100F1240408E002F00705D20824
:104EB000303542EA4372DB086554491C52EA030567
:104EC000F3D10468002310A2250707D5A40600D457
:104ED00021B1C46901230DA2641EC46130BCFFF777
:104EE000A1BE10B5044621461068FFF792FE0246A7
:104EF0002046BDE810400023D2E7D21D22F0070172
:104F0000D1E90023CCE700000000000030000000E1
:104F10003A2800D2303820F02002412A01D3A2F1F1
:104F20003700884201D34FF0FF30704702681144C8
:104F30001378016018467047D16005497944516182
:104F400004497944116200211161114600F072BCDC
:104F5000EDFFFFFF95010000426842B1016811F8C2
:104F6000013B23B1521EC0E90012184670470121CF
:104F7000C160881E704742685AB1C368016843B96E
:104F800083688B4205D0491E521CC0E900120020E4
:104F900070474FF0FF30704770B50C460168002035
:104FA0004A1C3ED03C22B1FBF2F302FB1313B1FBCF
:104FB000F2F12360B1FBF2F302FB1313B1FBF2F148
:104FC00018226360B1FBF2F302FB1313B1FBF2F1A1
:104FD00046F2E0320A440721A360B2FBF1F301FB81
:104FE000132140F2B553B2FBF3F5A161B2FBF3F12B
:104FF00003FB15228900B2F5B77F08D39B10521E20
:10500000B2FBF3F52944B2FBF3F503FB15220F4B7A
:10501000E261616189077B440CD03B2A0AD3521CB0
:1050200008E02C212046FFF778FC0120E0600AE030
:10503000521A401C195C9142FAD9521CC4E903204F
:105040004FF0FF302062204670BD0000EE7F01006F
:1050500030B5B0F10A024FEA900E71F100034EEA4A
:10506000817EB0EB0E0061EB91014FEA101E4EEA1B
:10507000017E10EB0E0041EB11114FEA102E4EEAAB
:10508000016E10EB0E0041EB11214FEA104E4EEA7B
:10509000014E10EB0E0041EB1141401841F10001AF
:1050A0004FEAD00040EA41704FEAD10110EB800591
:1050B0004FEA810444EA907444EB01046D1944EB17
:1050C0000404521BA3414FF0000348BF0A3200D52D
:1050D00030BD401C41F1000130BD10B5044600F068
:1050E000A9FD0068005D00F0010010BD70472DE9CA
:1050F000FF4F0C461E464FF0FF378BB0D2E9000140
:10510000DDF860800A908A46C1F30A5505B93D462C
:10511000002108464FF00000BAF1000F00F44000F3
:1051200005DA00EB80004FF4400101EA50004FEA3D
:105130009059B9F1010F00DDB9460A9850EA4A00CA
:105140000ED044F61050A5F2FF3545432F14B8F1A8
:10515000000F1ED07542291E1EDDC9F100021CE0A1
:10516000B8F1010F4FF0000001D0302103E0F2430D
:1051700005E02154401CB042FBDB304600220021F8
:1051800021540B99C1F80880C1E900200FB0BDE897
:10519000F08FBD1B6D1CDEE74A4600DA694206A8A7
:1051A00000F094FD06AB93E8070003AB83E807002B
:1051B00050460A9900F00AFE8DE80700A0F500505D
:1051C0001F3800900398002D0ADD42F21F014A4665
:1051D0000844002303A90390684601F073F809E02E
:1051E000A0F500504A461F38002303A903906846E3
:1051F00001F07DF88DE807000004000C03D04FF0AB
:10520000FF30410800E01046B8F1000F03D0002243
:10521000009215461EE0751E05D4FFF719FF3032C7
:1052200062556D1EF9D5B3460122084302D0002213
:105230007F1C04E02078302801D100227F1E002A44
:10524000099784D01DE0112D07DAFFF701FF3032F6
:1052500062556D1C50EA0102F5D1084302D0009856
:10526000C8B10EE00021681E05E0235C625C635457
:105270002254401E491C8142F7DBAB46A81B401E4E
:105280000990002004F80B000B98099AC0F80880D8
:10529000C0E9002B7AE711264FF0000857E72DE907
:1052A000F04F88460446D21D22F0070191B0D1E9A3
:1052B0000001CDE90A0113F0EBFA02460B98C00F8A
:1052C00001D02D2007E02068810701D52B2002E0C6
:1052D000202101EAC000032A099001D0072A05DB3A
:1052E00003464146204600F0B1FC0BE120788006E1
:1052F00001D5E06900E00620B8F1650F814606D0CF
:10530000B8F1660F18D0B8F1670F70D131E0002006
:10531000B9F1110F009001DB112301E009F1010344
:105320000AAA01A90CA8FFF7E2FEDDE90C7000262D
:1053300009F10105834647E001204B4600904FF0FC
:1053400000470AAA01A90CA8FFF7D1FEDDE90DB0BC
:105350000C995D46002610B909F101000D18B9EB52
:10536000050003D4C0F1FF3609F10105A5EB0900E2
:105370002BE0B9F1010F01DA4FF001090020B9F17A
:10538000110F0090484601DD112300E003460AAAF0
:1053900001A90CA8FFF7ABFEDDE90C704D46002615
:1053A0008346207800070AD4AB4500DA5D4601A8A1
:1053B000012D04DD411911F8011C302907D04F459A
:1053C00002DA17F1040F04DA012082460FE06D1EA5
:1053D000EEE7002F02DCED1B3E4403E0781CA84200
:1053E00000DD7D1CB81B00F1010A4FF0004720785A
:1053F000000703D4AA4501DB4FF0FF3A0021B7F1C3
:10540000004F0DF143088DF8431024D002202B23C8
:10541000002F01DA7F422D230A21021EA0F1010094
:1054200000DC5FB197FBF1FC97FBF1F201FB1C7C08
:1054300017460CF1300C08F801CDEEE7A8F1010099
:1054400003702188090501D5452100E06521A0F1FF
:10545000010800F8011C09980FA9A1EB0807FF1D1E
:1054600000B10120411901EBEA70A1693844081A22
:10547000401EA0612078C00602D42046FEF736FE0A
:10548000099828B1D4E901219047206A401C206284
:105490002078C00622D52046FEF728FE1EE0002E0A
:1054A00004DBB34502DD01A8805D00E03020D4E9D3
:1054B00001219047206A401C2062761CAAF101005D
:1054C0005FEA000A0AD100F0BDFBC0680168405CD9
:1054D000D4E901219047206A401C2062281EA5F1D2
:1054E0000105DCDC07E0D4E9012118F8010B904745
:1054F000206A401C2062381EA7F10107F3DC204619
:10550000FEF70AFE032011B041E600002DE9F04F3E
:1055100004460D46D21D22F0070089B0D0E900975D
:105520004846394613F0B4F90246F80F01D02D234E
:1055300007E02068810701D52B2302E0202101EA42
:10554000C0038DF820300BB1012000E00020032AB9
:10555000824601D0072A04DB2946204600F076FB6C
:105560003FE12078800601D40D2500E0E569C7F30E
:105570000A560D2D49DA00214FEA175B08464FF015
:105580000000002F00F4400007DA00EB80004FF429
:10559000400100EBD07001EA60008115012901DDB6
:1055A0004FF0FF3100224FEA850CBCF1180F06D3F3
:1055B0001346ACF118004FF08052C24003E04FF4A4
:1055C000801323FA0CF30CF10C0CBCF1200F04D364
:1055D000ACF1200C09FA0CF001E007FA0CF00029FC
:1055E0004FF0004801DD18B90FE00ED140450CD353
:1055F00019EB02095F4121B9404502D19F4329EAD5
:105600000209BBEB175F00D0761C2088000502D58D
:105610007B48784402E07A487844193808AA302355
:1056200002F80A30037C0AF10101002E0AF1020A95
:1056300053546A4602DC4FF0300101E04FF0310173
:105640004FF001088DF8001002D0A6F2FF3603E0FB
:1056500059EA470100D06B4E002D02DC2178090782
:1056600004D54FF002082E218DF80110C446002108
:105670000BE0C7F303433F01C35C491C6D1E02F8F6
:105680000830052908F1010801DA002DF1DC0021BC
:105690000CE000EB1973491C1B786D1E082902F8F9
:1056A00008304FEA091908F1010801DA002DF0DC91
:1056B00021688B0602D516E0A8F10108E04505DD5A
:1056C00002EB080313F8013C302BF5D0B8F1000FC2
:1056D00009DD02EB080313F8013C2E2B03D1090767
:1056E00001D4A8F10108002D05DD3E2102F80810C3
:1056F0006D1E08F10108407C002E02F8080008F138
:10570000010804DA2D20764202F8080002E02B207E
:1057100002F808000A214FF47A70864208F1010865
:105720000BDB96FBF0F3303302F8083096FBF0F316
:1057300008F1010800FB136601E0642E0CDB642015
:1057400096FBF0F3303302F8083096FBF0F308F1E3
:10575000010800FB136601E00A2E06DB96FBF1F060
:10576000303002F8080008F1010896FBF1F001FB67
:105770001060303002F80800A16908F1010808EB58
:10578000050202EB0A00081AA0612078C00602D4C4
:105790002046FEF7ABFC216A08AE01EB0A0020624E
:1057A00004E0D4E9012116F8010B9047BAF1010A8F
:1057B000F7D22078C00602D52046FEF797FC6E4649
:1057C00009E016F8010B3E280FD0D4E901219047DB
:1057D000206A401C2062B8F10108F2D22046FEF790
:1057E0009BFC09B00320BDE8F08F206A28442062AA
:1057F00003E0D4E90121302090476D1EEBD3F8E798
:10580000117A010002FCFFFF10B5436913B1AFF339
:10581000008001E0FFF7A8FA012010BD128800F116
:10582000240182840022C2840122EDE711684FF036
:10583000FF32E9E72DE9F34F4FF0000A0C465646D8
:105840008DB001200C9001F10C000B9062690B9857
:1058500001219047051E2DD0252D2CD0216A884787
:10586000C0B162690B9801219047216A88470028DE
:10587000F7D16269411E0B98904700E0761CA16940
:105880000D988847216A88470028F7D1E1690D986B
:105890008847DBE7A1690D988847A842074601D1F0
:1058A000761CD3E7E1690D9888477F1C02D1BAF1D5
:1058B000000F6FD06BE162690B9800273D463946B7
:1058C00090472A2804D162690B980121904701254D
:1058D000DFF8D08262690B9801219047A0F1300176
:1058E0000A290AD24745E5DC07EB870100EB4107AF
:1058F000303FDFD445F01005ECE7E90601D46FF046
:1059000000476C280AD04C2814D0682815D06A2883
:105910000DD074281CD07A281AD01DE062690B982B
:10592000012190476C2802D045F0040514E045F0B1
:1059300002050DE045F020050AE062690B9801219F
:105940009047682802D045F0080505E045F4006559
:1059500062690B9801219047C4E9015765283DD041
:1059600019DC58287AD00CDC452837D004DC2528EF
:1059700026D041289ED131E046282FD0472899D102
:105980002CE05B2877D0612828D063287CD064285D
:1059900023D15AE0F6E06F2848D008DC66281DD0F5
:1059A00067281BD0692821D06E2816D127E07028DF
:1059B00045D0732868D0752847D078280DD14DE0A0
:1059C000A1690D988847252805463FF469AFE1692C
:1059D0000D9888476D1C3FF46AAFD8E00D992346B7
:1059E0006A466FF00100AFF30080C5E045F040006B
:1059F00023464FF000026060A80736D43EE0E80777
:105A00007FF447AF2068011D21600068290501D59A
:105A100006701BE7290701D5068017E7A90703D5FC
:105A2000F117C0E9006111E706600FE745F040009B
:105A300023464FF008026060A80716D41EE040F627
:105A40000E0125EA0100606016E045F040002346A3
:105A50004FF00A026060A80707D40FE045F040004D
:105A60006060A80708D5234610220D996FF0010049
:105A7000AFF3008080E007E0102223460D996FF01D
:105A80000100FEF7EBFC77E04FF0000963284F467A
:105A9000C8464B46CB4602D05B2806D038E0E80625
:105AA00001D40120A060012732E06269D4F80CB073
:105AB0000B98012190475E2807D14FF00109494614
:105AC0006269D4F80CB00B989047216939B900216C
:105AD0000A4603AB43F82120491C0829FADBD8B356
:105AE000216949B308F1010862690B9801219047C7
:105AF0005D28F4D1B9F1000F09D0002003A951F8B5
:105B00002020D24341F82020401C0828F7DB03ABBB
:105B10002069002820794FEA40701ED05B4622465B
:105B2000CDF80080CDE901970D9900286FF00100B4
:105B300020DAAFF300801FE0C11703AA00EBD161A8
:105B40004B1121F01F0102EB8302411A136801205F
:105B5000884003431360C7E719E00D9922460028E7
:105B60006FF00100009702DAAFF3008004E0FEF767
:105B70001BFD01E0AFF3008000280ADA401C06D1CB
:105B80000C9820B14FF0FF300FB0BDE8F08F5046B9
:105B9000FAE7E90701D10AF1010A064400200C9056
:105BA00054E60000CCCCCC0C70B516460C4605462D
:105BB00000F040F8036893F80101012806D0FF2C9B
:105BC0000FD8185D68B101202C7070BDD3F80701A3
:105BD0003246214603F2071303442846BDE87040CD
:105BE00018474FF0FF3070BD754600F0EBF8AE4639
:105BF00005006946534620F00700854618B020B5D9
:105C0000FDF74AFFBDE820404FF000064FF00007C7
:105C10004FF000084FF0000B21F00701AC46ACE854
:105C2000C009ACE8C009ACE8C009ACE8C0098D46C1
:105C30007047000010B500F005F8001D10BD00BF52
:105C4000A55C010000487047BC5400202DE9F041DC
:105C50001F46044603260168072A01F4006004DB9E
:105C600008B116A505E016A503E008B115A500E0EA
:105C700015A521F010002060A069C01EA0610FB121
:105C8000401EA0612046FEF731FA4FB1D4E9012150
:105C900038469047206A401C2062C01C206206E003
:105CA000206AFAE7D4E9012115F8010B9047761E26
:105CB000F8D22046FEF730FABDE8F0814E414E00A2
:105CC0006E616E00494E4600696E66002DE9F04730
:105CD000814616468AB0354878440DC88DE80D00D7
:105CE00032487844801C03AC0DC884E80D0041F6AE
:105CF0009B300844372190FBF1F290FBF1F5A5F1C0
:105D0000800501FB12041B3C02D56442012000E027
:105D10000020DFF898A080460027FA44AAF1BE0AC6
:105D20000EE0E0070AD03246684607EB4701012340
:105D30000AEB810100F0DBFA8DE8070064107F1C9C
:105D4000002CEED1194F7F44AE3F19E0E80715D083
:105D500007EB04100DF1180A90E80E008AE80E0017
:105D6000C068F04201D1981908903246012306A973
:105D700003A800F0BCFA03AB83E807006D10641CB5
:105D8000002DE3D14FF0010332466946B8F1000F10
:105D900003A802D000F096FA01E000F0A8FAC9E9E1
:105DA0000001C9F808200AB0BDE8F087DC730100E3
:105DB00010B50446AFF300802046BDE81040FDF763
:105DC00056BE0000004870479C5400205FEA400C1B
:105DD00008BF91F0000F4FEA8C234FEAC12243EA3B
:105DE00051514FEA1C5018BF00F5F0404FEA300007
:105DF00018BF41F000415FEA6C5C00F02980BCF103
:105E0000FF3F08BF40F080407047130C06BF1204EC
:105E10004FF0100C4FF0000C130E04BF12020CF1E7
:105E2000080C130F04BF12010CF1040C930F04BFF4
:105E300092000CF1020CD30F04BF52000CF1010CC4
:105E400011464FF00002A0F11F00A0EB0C007047BC
:105E500011F0004F08BF704731F000413FF4D5AF5B
:105E60000B0C06BF09044FF0100C4FF0000C0B0E8A
:105E700004BF09020CF1080C0B0F04BF09010CF15F
:105E8000040C8B0F04BF89000CF1020CCB0F04BF74
:105E900049000CF1010CCCF12003A0EB0C0022FA1C
:105EA00003F302FA0CF241EA030100F1010070472A
:105EB00020F07F4C80EA030023F07F47ACEB070320
:105EC00003F57C5300F0004003F1FF032DE9804906
:105ED0004FEA154B09B44FEA144325EA0B4E24EA66
:105EE00003480FF2042606EB132749083E785FEAC1
:105EF000320203FB0667C7F5000707FB06F64FEA09
:105F000054374FEAD64606F1020607FB066CCCF181
:105F1000005C4FEA1C472CEA074C07FB06F40CFB1D
:105F200006F504EB15464FEA961634BF00204FF0F5
:105F300000404FEAD13706FB07FC4FEA1C4C0CFB34
:105F40000BF7D21B03FB0CF761EB07010CFB0EF701
:105F5000B0EB074072EB17420CFB08F734BFA2EB23
:105F60000742B2EB074261EB17414FEA0C444FEA9C
:105F7000910706FB07FC4FEA1C4C0CFB0BF7B0EB40
:105F8000C74072EB573203FB0CF734BFA2EBC7429A
:105F9000B2EBC74261EB57310CFB0EF7B0EBC70019
:105FA00072EB57720CFB08F734BFA2EBC702B2EBDF
:105FB000C70261EB5771039F4FEA816141EA921179
:105FC00004EBCC044FEAD1374FEA826206FB07FCB0
:105FD00042EA90124FEA80604FEA1C4C0CFB0BF730
:105FE000D21B03FB0CF761EB07010CFB0EF7B0EBC8
:105FF000074072EB17420CFB08F734BFA2EB0742D5
:10600000B2EB074261EB17414FEA8C554FEA91071B
:1060100004EB9C2406FB07FC4FEA1C4C0CFB0BF723
:10602000B0EBC74072EB573203FB0CF734BFA2EB67
:10603000C742B2EBC74261EB57310CFB0EF7B0EB36
:10604000C70072EB57720CFB08F734BFA2EBC70214
:10605000B2EBC70261EB577115EB4C254FEA81613A
:1060600041EA92114FEA82624FEAD13742EA901236
:1060700006FB07FC44F100044FEA80604FEA1C4C29
:106080000CFB0BF7D21B03FB0CF761EB07010CFBBE
:106090000EF7B0EB074072EB17420CFB08F734BF6A
:1060A000A2EB0742B2EB074261EB174115EB1C155F
:1060B0004FEA813141EA92414FEA823242EA90420C
:1060C0004FEA80304FEA0C7644F1000448EA03437B
:1060D0004EEA0B484FF0000EB2EB080C71EB0307D1
:1060E00024BF624639464EEB0E0E4FF0000B0018EF
:1060F000524149414BEB0B0BB2EB080C71EB030720
:106100007BF1000B24BF624639464EEB0E0E4FF07A
:10611000000B0018524149414BEB0B0BB2EB080C42
:1061200071EB03077BF1000B24BF624639464EEB4F
:106130000E0E51EA020718BF46F0010616EB0E7666
:1061400055F1000254F1000103D5BDE88901BDE815
:106150000088BDE88901BDE80048B619524141EB0D
:106160000101A3F10103704780807F7E7D7C7B7AF3
:106170007978777676757473727171706F6E6E6DF3
:106180006C6C6B6A6A696868676666656464636399
:1061900062616160605F5F5E5E5D5D5C5C5B5B5A1F
:1061A0005A5959585857575656555555545453538C
:1061B00052525251515050504F4F4F4E4E4D4D4DE7
:1061C0004C4C4C4B4B4B4A4A4A4949494848484732
:1061D0004747474646464545454444444443434370
:1061E0004342424242414141002B9C4630D4770019
:1061F0002BD01CB54FEA370703B44FF010004FF017
:106200001001BAF1000F06D0BCF1000FDCBF40F066
:10621000080040F008014FF000000FBCBDE810403E
:106220000BF1010BBBF1010F08BF5FEA170722BF9B
:1062300012F1010211F101014FF0004143F100039D
:1062400000F0004043EA00007047F9D35708D0E758
:1062500046EA064613F1400F4FEA16461FDD13F1DA
:10626000200FDFBF16430A46002120335B42BED019
:10627000C3F1200746EA064602FA07F74FEA164638
:1062800046EA0706C3F1200722FA03F201FA07F7EC
:1062900021FA03F14FF0000342EA0702A7E746EABA
:1062A000020646EA06464FEA164646EA0106BCBF23
:1062B00046EA0646360C4FF000034FF000024FF05E
:1062C000000194E72DE9804C9A46934670B491E81A
:1062D000380007C831EA400C48BF34EA430C03D504
:1062E000FFF7E6FDFFF780FFF0BCBDE8008C2DE96D
:1062F000804C9A46934670B491E8380007C810F075
:10630000804F08BF13F0804F03D100F005F8FFF76E
:106310006BFFF0BCBDE8008C20F07F4780EA0300F3
:1063200023F07F4C07EB0C03A3F57C5300F00040F7
:10633000A3F1FE0392F0000F00F0B38095F0000F80
:1063400000F077802DE901494FEA11404FEA1446E9
:1063500021EA004800FB06FC24EA064708FB06F693
:1063600007FB08F800FB07F718EB06484CEB164C48
:106370004FEA124B18EB07484FEA15464CEB174013
:1063800022EA0B4E0BFB06FC25EA06470EFB06F63F
:1063900007FB0EFE0BFB07F71EEB064E4CEB164CF5
:1063A0004FF000061EEB074E4CEB174B18EB0B089B
:1063B00040F1000018EB0E0B58EB000840F1000014
:1063C0008F1A4FF000013CBFC943661B14BFB5EBE9
:1063D000040C00213CBFC943F61B4FEA17444EEAA8
:1063E0008E0E27EA04454FEA1C4704FB07622CEA9D
:1063F000074C05FB07F70CFB05F604FB0CFC16EB42
:10640000074642EB174216EB0C4642EB1C421BEBD5
:10641000060658EB0202414146EA9E0601D5BDE858
:106420000189B619524141EB0101A3F10103BDE815
:1064300001894FEA14454FEA114724EA054621EA4B
:10644000074C05FB07F406FB07F70CFB06F105FB01
:106450000CFC11EB074144EB17444FEA124711EBD8
:106460000C4144EB1C4422EA074C05FB07F206FBF7
:1064700007F70CFB06F605FB0CFC16EB074642EB98
:10648000174216EB0C4642EB1C456A1854F100010A
:1064900048BF7047B619524141EB0101A3F1010316
:1064A000704795F0000F37D04FEA11424FEA14477A
:1064B00021EA024624EA074C02FB07F106FB07F734
:1064C0000CFB06F402FB0CFC14EB074441EB1741F8
:1064D0004FEA154714EB0C4441EB1C4125EA074CED
:1064E00002FB07F506FB07F70CFB06F602FB0CFCAC
:1064F00016EB074645EB174516EB0C4645EB1C42E1
:10650000121951F1000148BF7047B619524141EBD1
:106510000101A3F1010370474FEA14454FEA114707
:1065200024EA054621EA074C05FB07F106FB07F7BD
:106530000CFB06F24FF0000605FB0CFC12EB0742C9
:1065400041EB174112EB0C4251EB1C4148BF704725
:10655000921841EB0101A3F10103704770B50446A5
:10656000002520680068C0F38010F0B120688068C2
:1065700020F001002168886001F026FD05460EE04C
:1065800001F022FD401B022809D9E06C40F0100008
:10659000E064206D40F001002065012070BD20689E
:1065A0000068C0F380100028EAD10020F6E770B53B
:1065B00005466C6AE06C00F0500050BBE06C40F4A3
:1065C0000070E0642068806800F04050E8B9606ABC
:1065D000D8B92068006B00F0F87020B1206880689E
:1065E00000F4806088B92068406820F020002168AD
:1065F0004860E06C20F48070E064E06C00F480504F
:1066000018B9E06C40F00100E064204600F04EFD57
:1066100003E0606C016B2846884770BD70B5054685
:106620006C6AE06C40F04000E064206D40F00400D3
:106630002065204600F0D2FD70BD70B50446656A45
:10664000284600F034FD70BD38B504460025002012
:10665000009020680068C0F3801090BB20688068BC
:1066600040F0010021688860174800681749B0FBB6
:10667000F1F000EB4000009002E00098401E009016
:1066800000980028F9D101F09FFC054613E001F0C5
:106690009BFC401B02280ED9E06C40F01000E06427
:1066A000206D40F00100206500BF002084F8480004
:1066B00000BF012038BD20680068C0F380100028AA
:1066C000E5D00020F6E700005800002040420F000F
:1066D00010B586B0044600BF1948006840F00200BB
:1066E000174908600846006800F00200009000BFEB
:1066F00000BF881501900120029000200390032024
:10670000049001A90F4801F069FB012C05D1012279
:1067100011020C4801F052FC06E02CB900224FF4A3
:106720008071084801F04AFC4FF48070019000200D
:10673000049001A9034801F051FB06B010BD000010
:106740001C380240000402402DE9F04104460D4689
:106750001646002700BF0DE00120FFF7B9FF2846CD
:1067600000F0A2F90020FFF7B3FF304600F09CF9DB
:10677000781C87B2A742EFDBBDE8F08100BFFEE7DF
:106780007CB504460D464920005D01280BD001214F
:1067900049200155E5646846E16C0FF035FFDDE9FD
:1067A0000012C4E919127CBD30B590F840500124A4
:1067B000AC40C56B6C60046863604468102C04D105
:1067C0000468A2600468E16003E00468A1600468F2
:1067D000E26030BD2DE9F04104460E4617462F48D1
:1067E00020602F4860604FF48070A060E06000205F
:1067F000208260822B4860614FF48070A0611E206F
:10680000A0830320E0830020206284F8240026A0D7
:10681000A0622AA1E1642DA1616630A1C4F88810AC
:10682000002521E0C5EB051304F1280151F82320D0
:10683000C5EB051301EB8301081D2CA1FDF740FCFE
:10684000C5EB051304F1280101EB8301C5EB05132A
:106850004A6A04F1280101EB830101F1280023A118
:10686000FDF72EFC681CC5B2022DDBDB002084F88E
:10687000A0000021A4200151A8200155A920015504
:10688000AA200155AB200155AC200155002004F889
:10689000B80F6660A760B83CBDE8F081E42F002027
:1068A000E4300020E43100206D7174742E6D6F7639
:1068B0006562726F61642E636E00000034372E399A
:1068C000382E3134302E3134350000006D6F76654E
:1068D00062726F61642E636E000000003130362EEC
:1068E00031342E3134322E31363900002573000018
:1068F00070B50446012500262168A06907F0C4FD93
:1069000005460DB1012603E04FF0FF302060002660
:10691000304670BD2DE9F04704460E4617461D4629
:10692000DDF820804FF000094FF0FF302060A78095
:106930000020A060E060206160612846FDF7E2FE73
:1069400082465246294604F10800FDF745FFA4F8A7
:106950000680A6610548E06105482062054860623E
:106960000548A0624846BDE8F08700007D69000840
:10697000F1680008416A0008AB690008F8B50446F0
:106980000125002600200090A1886B460122A06905
:1069900007F0C2FD05461DB1701E2060012602E011
:1069A0000098206000263046F8BD2DE9F04788B0F9
:1069B00004460D4617461E46DDF840804FF001099B
:1069C0004FF0000A002003902068002801DACA4630
:1069D00032E00020049005900690079003A804A9D7
:1069E000CDE9001043463A462168A06907F0D8FF78
:1069F0008146B9F1000F02D04FF0010A1BE01022CE
:106A000004F1080104A8FDF79CFE90B9E088BDF8E8
:106A10000C1088420DD1A069B0F9122041682846B7
:106A2000FDF7DAFEA069B0F9120030604FF0000AFD
:106A300001E04FF0010A00BF504608B0BDE8F08702
:106A40002DE9F04104460E46154601274FF0000897
:106A50002068002801DAB84617E0A1692A460868CC
:106A60003146FDF7B9FE28B2A1690882E38804F136
:106A700008022168A06908F055F9074617B14FF0E0
:106A8000010801E04FF0000800BF4046BDE8F0817A
:106A90007047000010B50446042003F0E5FA0148F1
:106AA000046010BD3800002030B50446002504E025
:106AB0004FF47A7000F004F86D1CA542F8D330BD95
:106AC00070B5034600224FF0E02675690F4E366818
:106AD00003FB06F44FF0E026B16913E04FF0E02627
:106AE000B06988420ED0884202D20E1A324402E0C7
:106AF0002E1A0E4432440146C2EB0226B4EB860F36
:106B000000D800E0EAE700BF70BD000038000020B8
:106B100072B6704762B6704710B54FF4806001F0EE
:106B20004FF910BD70B504460D4600264CF25030AA
:106B300000F08EF906465EB90648006820F48070C1
:106B40000449086025704CF2503000F081F9064687
:106B5000304670BD043C024070B504460D46002628
:106B60004CF2503000F074F906465EB906480068F1
:106B700020F480700449086025804CF2503000F009
:106B800067F90646304670BD043C024070B50446C5
:106B90000D4600264CF2503000F05AF906465EB918
:106BA0000648006820F480700449086025604CF2B3
:106BB000503000F04DF90646304670BD043C0240AE
:106BC00070B504460D4600264CF2503000F040F9F6
:106BD00006462EB925704CF2503000F039F90646C1
:106BE000304670BD70B504460D4600264CF250305C
:106BF00000F02EF906462EB925804CF2503000F0F8
:106C000027F90646304670BD70B504460D4600268D
:106C10004CF2503000F01CF906462EB925604CF2BB
:106C2000503000F015F90646304670BD2DE9F041B0
:106C300005460E461746002405E0281900F00EF818
:106C40003055601C84B2BC42F7DBBDE8F08110B562
:106C50000446204600F002F810BD0000014601483D
:106C6000085C70470000080838B504460020009012
:106C70002046FFF7F3FF8DF80000601CFFF7EEFFE2
:106C80008DF80100BDF8000038BD38B5044600207D
:106C900000902046FFF7E2FF8DF80000601CFFF730
:106CA000DDFF8DF80100A01CFFF7D8FF8DF8020072
:106CB000E01CFFF7D3FF8DF80300009838BD0000FB
:106CC0002DE9F04105460E461746FFF721FF00F07B
:106CD000C9FF4FF4006009490860002405E0315DF8
:106CE000281900F023F8601C84B2BC42F7DB00F0E6
:106CF0005BFFFFF70FFFBDE8F0810000183C02408A
:106D000070B504460D46FFF703FF00F0ABFF4FF4EC
:106D10000060054908602946204600F007F800F0A9
:106D200043FFFFF7F7FE70BD183C024070B5044604
:106D30000D462A4602482118002000F03FFF70BD92
:106D40000000080813B50446FFF7E2FE00F08AFFD2
:106D50004FF40060084908609DF804102046FFF7D2
:106D6000E5FF9DF80510601CFFF7E0FF00F01CFF39
:106D7000FFF7D0FE1CBD0000183C024013B50446CE
:106D8000FFF7C6FE00F06EFF4FF400600D4908608B
:106D90009DF804102046FFF7C9FF9DF80510601C00
:106DA000FFF7C4FF9DF80610A01CFFF7BFFF9DF87A
:106DB0000710E01CFFF7BAFF00F0F6FEFFF7AAFE8F
:106DC0001CBD0000183C024000201F49096801F466
:106DD0008071B1F5807F07D11C49496941F00201FA
:106DE0001A4A516140F480701749096801F4007132
:106DF000B1F5007F07D11549496941F00101134AF6
:106E0000516140F400701049096801F40061B1F566
:106E1000006F07D10D49496941F004010B4A5161E6
:106E200040F400600849096801F40051B1F5005FC1
:106E300007D10649496941F01001044A516140F403
:106E40000050014908607047183C02409802002039
:106E500070B5044601F0B8F8054609E0601C38B189
:106E600024B101F0B1F8401BA04201D9032070BD4C
:106E70001748006800F001000028EFD114480068AE
:106E800000F00200022801D1114908601048006892
:106E900000F48070B0F5807F14D00D48006800F4D5
:106EA0000060B0F5006F0DD00948006800F4005094
:106EB000B0F5005F06D00648006800F40070B0F539
:106EC000007F03D1FFF780FF0120D0E70020CEE74D
:106ED000183C024038B5024600230020009000BF55
:106EE00092F84800012801D1022038BD012082F823
:106EF000480000BF4868072812D21068006C0C795F
:106F0000641E04EB84051F24AC40A0430D796D1E64
:106F100005EB85050C68AC4020431468206453E001
:106F200048680D2812D21068C06B0C79E41F04EB7E
:106F300084051F24AC40A0430D79ED1F05EB8505AA
:106F40000C68AC4020431468E0633DE048681328B7
:106F500012D21068806B0C790D3C04EB84051F2461
:106F6000AC40A0430D790D3D05EB85050C68AC40A8
:106F700020431468A06327E04868192812D21068DB
:106F8000406B0C79133C04EB84051F24AC40A043F8
:106F90000D79133D05EB85050C68AC402043146862
:106FA000606311E01068006B0C79193C04EB8405F8
:106FB0001F24AC40A0430D79193D05EB85050C68F5
:106FC000AC4020431468206308680A2810D2106877
:106FD00040690C7804EB44050724AC40A0430D78CD
:106FE00005EB45058C68AC402043146860612CE0DB
:106FF0000868142812D2106800690C780A3C04EB67
:1070000044050724AC40A0430D780A3D05EB450537
:107010008C68AC4020431468206116E008681A2888
:1070200012D81068C0680C78143C04EB440507249F
:10703000AC40A0430D78143D05EB45058C68AC4091
:1070400020431468E06000E000BF0868102802D008
:10705000086811281DD11248006800F40000C0B96A
:107060000F48006840F400000D4C206008681028AC
:107070000FD10C4800680C4CB0FBF4F000EB800022
:107080004000009002E00098401E00900098002808
:10709000F9D100BF002082F8480000BF184624E75D
:1070A000042701405800002040420F0070477047FD
:1070B00070B5044600250CB9012070BDE06C40F0AD
:1070C0000200E0642046FFF749FA0546002D76D11C
:1070D0006FF01F0021680860206840683B49084045
:1070E00021684860206880683949084021688860C4
:1070F00000BF2068C0686FF314002168C860206872
:10710000006900F04040216808612068406900F093
:10711000404021684861206880696FF30B00216856
:1071200088612068C0696FF30B002168C86120681E
:10713000006A6FF30B00216808622068406A6FF3F1
:107140000B00216848622068806A6FF30B00216899
:1071500088622068C06A6FF30B002168C8622068EB
:10716000006B1C490840216808632068406B00F0F0
:107170004040216848632068806B00F040402168EF
:1071800088632068C06B00F040402168C8632068B5
:10719000006C00F04040216808642068406C6FF388
:1071A0001500216848640C48006820F400000A4972
:1071B0000860204600F0FEF800202065E06400BF73
:1071C000002084F8480000BF284676E700003CF81D
:1071D0008CF0808000800FFE04270140704701463C
:1071E0000868806D70470000F8B504460027002647
:1071F00000250CB90120F8BD206910B1E06A00B18A
:1072000000BF606B102800D000BFE06CA0B9002068
:10721000206584F8480000BF6148006840F0010024
:107220005F4908600846006800F00100009000BF58
:1072300000BF204600F00AF9E06C00F010000028C2
:1072400074D1E06C20F4885040F00200E0645548AE
:10725000006820F440306168084352490860616961
:10726000E06808434FF4007292FAA2F2B2FA82F296
:10727000E16B91400843216A0843022292FAA2F28C
:10728000B2FA82F2616A914008430543606B1028AC
:1072900003D0D4E90D010843054320680068C0F31A
:1072A000801090BBA0690543E169A068084321698B
:1072B000B1F5807F02D02169012902D14FF480719C
:1072C00000E0002108430643E06A012816D1606A05
:1072D00060B9206B401E4FF4604191FAA1F1B1FA00
:1072E00081F1884040F40060064307E0E06C40F024
:1072F0002000E064206D40F00100206520684068B7
:10730000294908403043216848602068806827493F
:1073100008402843216888602069B0F5807F02D04A
:107320002069012803D14FF4807001E035E000208E
:10733000B0F5807F10D12068006B20F0F871A06A52
:10734000401E4FF0F87292FAA2F2B2FA82F2904026
:1073500001432068016305E02068006B20F0F870AD
:10736000216808632068806811490840A84208D154
:1073700000202065E06C20F0020040F00100E06495
:107380000CE0E06C20F0020040F01000E064206DA2
:1073900040F001002065012700E0012738462AE778
:1073A0002038024004270140FF16FCFC8DF1FFC08D
:1073B000FEFF80BF10B504461D4884420CD11D4815
:1073C000006820F400701B49086002211A4800F090
:1073D0005FFC606C00F032FB184884420CD1154809
:1073E000006820F40070134908600221144800F07E
:1073F0004FFC606C00F022FB124884420DD10D4816
:10740000006820F400700B4908604FF400410C48FC
:1074100000F03EFC606C00F011FB0B48844205D18B
:107420000448006820F400700249086010BD0000A4
:10743000BC1E00202038024000000240DC02002078
:1074400000040240300300208403002010B586B001
:1074500004465A4884424BD100BF5948006840F462
:107460000070574908600846006800F400700090FA
:1074700000BF00BF00BF081F006840F00100091FE7
:1074800008600846006800F00100009000BF00BFDF
:1074900000BF0846006840F0807008600846006839
:1074A00000F08070009000BF00BF02200190032018
:1074B00002900020039001A9424800F08FFC42484E
:1074C00042490860002048600021404881608021D6
:1074D000C160490001618900416120218161002171
:1074E000C16100F0DBFA00BF38486064446200BF4D
:1074F0003748844225D100BF3148006840F400700D
:107500002F4908600846006800F40070009000BF32
:1075100000BF00BF081F006840F00200091F08609C
:107520000846006800F00200009000BF00BF022083
:107530000190032002900020039001A9254800F04B
:107540004DFC2548844226D100BF1D48006840F408
:1075500000701B4908600846006800F40070009045
:1075600000BF00BF00BF081F006840F00200091FF5
:1075700008600846006800F00200009000BF00BFED
:107580004FF400400190032002900020039001A9D5
:10759000104800F023FC114884420DD100BF084878
:1075A000006840F40070064908600846006800F46E
:1075B0000070009000BF00BF06B010BDBC1E0020D0
:1075C000203802400000024008600240101F0020E6
:1075D000DC0200200004024030030020840300206D
:1075E00070B504460D4600262068806800F480606F
:1075F00078B12068806800F4807050B1E06C40F091
:107600002000E06400BF002084F8480000BF012093
:1076100070BD00F0D9FC064612E0681C80B125B1AF
:1076200000F0D2FC801BA8420AD9E06C40F00400B4
:10763000E06400BF002084F8480000BF0320E7E7B3
:107640002068006800F002000028E6D0A06918B9A0
:107650006FF0120021680860E06C40F40070E06494
:107660002068806800F04050B8B9606AA8B9206806
:10767000006B00F0F87020B12068806800F4806032
:1076800058B9E06C20F48070E064E06C00F4805045
:1076900018B9E06C40F00100E0640020B8E770B574
:1076A0000446002500BF94F84800012801D10220BB
:1076B00070BD012084F8480000BF2046FEF7C4FFDB
:1076C000054685BBE06C40F20161884340F4807060
:1076D000E0642068406800F4806028B1E06C20F429
:1076E000005040F48050E064E06C00F4805020B121
:1076F000206D20F00600206501E00020206500BF1D
:10770000002084F8480000BF6FF022002168086064
:107710002068806800F0405028B92068806840F0F8
:107720008040216888602846C2E700002DE9F041CA
:1077300004460D461646002700BF94F8480001286D
:1077400002D10220BDE8F081012084F8480000BF8A
:107750002046FEF779FF0746002F4DD1E06C40F23E
:107760000161884340F48070E0642068406800F460
:10777000806028B1E06C20F4005040F48050E06458
:10778000E06C00F4805020B1206D20F006002065F0
:1077900001E00020206500BF002084F8480000BF01
:1077A0001648616C88621648616CC8621548616C45
:1077B00008636FF02200216808602068406840F08C
:1077C0008060216848602068806840F4807021688B
:1077D0008860226802F1580133462A46606C00F046
:1077E00095F92068806800F0405028B920688068CA
:1077F00040F08040216888603846A3E7AF65000804
:107800003B6600081D66000870B50446002500BFF1
:1078100094F84800012801D1022070BD012084F8AD
:10782000480000BF2046FEF799FE05462DB9E06CE2
:1078300020F4885040F00100E06400BF002084F88C
:10784000480000BF2846E8E730B50346002400BFE3
:107850005879012801D1022030BD0120587100BFA4
:1078600002201871D1E90005284304431868006814
:1078700040F6FE759540A84304FA02F528431D68BA
:10788000286018680068C0259540A8431D682860D6
:107890000120187100BF0020587100BF00BFDBE756
:1078A00010B504460CB9012010BD022020712046FD
:1078B00000F01CF800202061207100BF607100BF43
:1078C00000BFF1E710B504460CB9012010BD2079C6
:1078D00020B900206071204600F02EF802202071AF
:1078E00000202061012020710020EFE710B5044640
:1078F0000E48844219D10E48006840F000500C49EF
:1079000008600846006820F00050086008480C3005
:10791000006820F0005006490C310860102105482D
:1079200000F0B6F9E06800F089F810BD541F00209F
:10793000183802400000024010B586B004461648D0
:10794000844227D100BF1548006840F00050134919
:1079500008600846006800F00050009000BF00BFBB
:1079600000BF0E480838006840F001000B49083994
:1079700008600846006800F00100009000BF00BFEA
:1079800010200190032002900020039001A90448D8
:1079900000F024FA06B010BD541F00202438024025
:1079A0000000024038B50446002000902068009096
:1079B00029B902F10800009D2844009004E002F17A
:1079C0001400009D2844009000980360002038BDFA
:1079D000024600BF5079012801D1022070470120E2
:1079E000507100BF022010711068006801238B40A5
:1079F00018431368186061B91068006800F03C0013
:107A00003C2813D11068406840F0010013685860AA
:107A10000CE01068006800F47010B0F5701F05D11C
:107A20001068406840F0020013685860012010712F
:107A300000BF0020507100BF00BFCFE7014609B969
:107A4000012070470868006820F001000A68106093
:107A5000114A0868801A1422B0FBF2F08000086412
:107A60000D480838C86300200A6810600A68506032
:107A70000A6890600A68D06091F840200120904028
:107A8000CA6B50600020886381F8210000BF81F834
:107A9000200000BF00BFD4E708600240014600227A
:107AA00009B901207047184B0868C01A1423B0FBAD
:107AB000F3F08000086414480838C863022081F895
:107AC00021000868026843F6F0708243D1E901039F
:107AD0001843CB6818430B6918434B6918438B69EB
:107AE0001843CB691843024308680260002088628B
:107AF000C862086348638863012081F82100002080
:107B000081F8200000BFCDE7086002402DE9F04178
:107B100004460D4616461F464FF0000800BF94F875
:107B20002000012802D10220BDE8F081012084F864
:107B3000200000BF94F8210001282CD1022084F8F5
:107B400021000020A0632068006820F00100216867
:107B500008603B46324629462046FEF725FEE06A8D
:107B600030B12068006840F00E00216808600BE02A
:107B70002068006820F00400216808602068006820
:107B800040F00A00216808602068006840F00100A9
:107B90002168086006E000BF002084F8200000BFD4
:107BA0004FF002084046BFE70348006840F001007C
:107BB0000149086000207047043C02402DE9F04173
:107BC00004460E461546012700BF2548007C0128C3
:107BD00002D10220BDE8F08101202149087400BFD4
:107BE0004CF25030FFF734F9074607BB00201C4920
:107BF0004861022C05D129463046FFF705F80746B3
:107C000027E0012C05D1A9B23046FEF7EBFF07466D
:107C10001FE02CB9E9B23046FEF7D2FF074618E064
:107C2000042C05D1E9B23046FEF77CFF074610E090
:107C3000082C05D1A9B23046FEF78EFF074608E0B2
:107C4000102C05D129463046FEF7A0FF074600E07C
:107C5000012700BF00200249087400BF3846B9E779
:107C6000980200200748006800F0010030B1064883
:107C70000449083108600548086001E001207047A8
:107C80000020FCE7043C0240EFCDAB890504030271
:107C9000F0B50B4600210022002476E001258D403E
:107CA00005EA0302002A6FD005684F000326BE4094
:107CB000B5430560CE0800F1200555F826504E0763
:107CC000F70E0F26BE40B543CF0800F1200646F858
:107CD000275085684F000326BE40B5438560456840
:107CE00001268E40B5434560C5684F000326BE405F
:107CF000B543C560274D8E0855F826408D072E0FD9
:107D00000F25B5402C40244DA84201D1002514E098
:107D1000224DA84201D101250FE0214DA84201D1F9
:107D200002250AE01F4DA84201D1032505E01E4DA2
:107D3000A84201D1042500E005258E07360FB54085
:107D4000A54221D18D072E0F0F2505FA06F4114DFE
:107D50008E0855F82650A5430E4E8F0846F827503A
:107D6000124D2D689543114E3560351D2D68954394
:107D7000361D3560351D2D689543361D3560351D22
:107D80002D689543361D3560491C23FA01F5002DF9
:107D900084D1F0BD08000140000002400004024010
:107DA00000080240000C02400010024000040140A4
:107DB00010B50446B4F5806F01D10CF05FFE10BD24
:107DC00010B5044604480068204020B10248046011
:107DD0002046FFF7EDFF10BD1404014078B50346BF
:107DE000002200240020CAE0012696400D6805EA22
:107DF0000604002C71D04D68022D02D04D68122D62
:107E000013D1D60803F1200555F826005507EE0ECC
:107E10000F25B540A8435607F60E0D69B540284317
:107E2000D60803F1200545F82600186856000325FA
:107E3000B540A8430D7905F003055600B540284329
:107E400018604D68012D08D04D68022D05D04D6891
:107E5000112D02D04D68122D13D1986856000325BC
:107E6000B540A8435600CD68B5402843986058688F
:107E700001259540A8430D79C5F300159540284389
:107E80005860D86856000325B540A84356008D6851
:107E9000B5402843D8604D6805F08055B5F1805F46
:107EA0006CD100BF394D2D6845F00105374E356066
:107EB00035462D6805F00105009500BF00BF344D23
:107EC000960855F8260095072E0F0F25B540A843B4
:107ED000304DAB4202D1002515E04FE02E4DAB42B4
:107EE00001D101250FE02D4DAB4201D102250AE061
:107EF0002B4DAB4201D1032505E02A4DAB4201D108
:107F0000042500E005259607360FB5402843204D8F
:107F1000960845F82600244D2868A0434D6805F4CE
:107F20008035B5F5803F00D120431F4D28602D1DC1
:107F30002868A0434D6805F40035B5F5003F00D131
:107F40002043194D2D1D28602D1D2868A0434D6824
:107F500005F48015B5F5801F00D12043124D08357A
:107F600028602D1D2868A0434D6805F40015B5F55F
:107F7000001F00D120430C4D0C352860521C0D68A9
:107F8000D540002D7FF430AF78BD0000203802408E
:107F900008000140000002400004024000080240C6
:107FA000000C024000100240000401400246136928
:107FB0000B400BB1012000E0002070470AB1816145
:107FC00001E00B04836170470148006870470000BE
:107FD0000000002070B504460CB9012070BD4CF6BD
:107FE000CC402168086045F2555021680860D4E90A
:107FF000001048602168A0688860FFF7E5FF05462B
:1080000006E0FFF7E1FF401B302801D90320E5E738
:108010002068C0680028F4D14AF6AA2021680860C8
:108020000020DBE701464AF6AA200A68106000201B
:108030007047000002480068401C01490860704712
:108040000000002010B500BF0A48006840F004009E
:10805000084908600846006840F00200086000BF58
:10806000052000F079F80F2000F006F800F018F86D
:10807000002010BD003C024070B50446074800686F
:108080004FF47A71B0FBF1F5284602F01DF800229A
:108090002146501E00F021F8002070BD580000203D
:1080A0007047000000BF00F01F0201219140034A09
:1080B000430942F8231000BF7047000080E100E050
:1080C00000BF00F01F02012191404209920002F11D
:1080D000E022C2F8001100BF70472DE9F05F804632
:1080E0000D46164600270AF051FF074639462A4634
:1080F000334601F00700C0F1070ABAF1040F02D9B4
:108100004FF0040A01E0C0F1070AD14600F1040A69
:10811000BAF1070F02D24FF0000A01E0A0F1030A02
:10812000D4464FF0010A0AFA09FAAAF1010A0AEA4A
:10813000020A0AFA0CFA4FF0010B0BFA0CFBABF136
:10814000010B0BEA030B4AEA0B04214640460AF0F6
:1081500025FFBDE8F09F000000BF00F00702064BBE
:1081600019684FF6FF031940044B0B4343EA022101
:10817000014B196000BF70470CED00E00000FA05EC
:1081800000BF00BF00BF00BF00BFBFF34F8F00BFE5
:1081900000BF00BF0948006800F4E06008490843D8
:1081A000001D0649086000BF00BF00BFBFF34F8F2E
:1081B00000BF00BF00BF00BF00BFFDE70CED00E047
:1081C0000000FA050120010291FAA1F1B1FA81F152
:1081D000014A42F82100704700000E420D4A126821
:1081E00022F0030202430B4B1A600B4A126842F062
:1081F0000402094B1A60012901D130BF02E040BFDF
:1082000020BF20BF044A126822F00402024B1A6009
:10821000704700000070004010ED00E0F8B5044623
:10822000002600250027207800F0010000287DD0DE
:10823000207800F0010000B100BF6948006800F03C
:10824000805070B900BF6648006840F080506449B3
:1082500008600846006800F08050009000BF00BF32
:1082600001276048006800F48070B0B95D4800687C
:1082700040F480705B490860FFF7A6FE064606E002
:10828000FFF7A2FE801B642801D90320F8BD5548E2
:10829000006800F480700028F2D05148243800684B
:1082A00000F0C045606800F0C040A8420DD0606892
:1082B00000F44030B0F5403F07D149482438006809
:1082C00000F4003008B10120E0E7454810300068B4
:1082D00000F44035002D59D0606800F44030A842C9
:1082E00054D0207800F0010078B33D481030006889
:1082F00020F440350120C10591FAA1F1B1FA81F1D4
:10830000394A02EB8101C1F8800600204FF40001D8
:1083100091FAA1F1B1FA81F102EB8101C1F8800675
:108320002F481030056005F4807000E056E060B121
:10833000FFF74AFE064609E0FFF746FE801B41F2C2
:108340008831884202D90320A0E71FE04020C10005
:1083500091FAA1F1B1FA81F108430121B1EB601F5B
:1083600003D11F482438006802E01D48103000681F
:108370004021CA0092FAA2F2B2FA82F2114301F04D
:108380001F020121914008400028D5D000BF00BF46
:10839000606800F44030B0F5403F0BD110482438FD
:1083A000006820F0C040616801F0C04108430C49FA
:1083B0002439086000BF0A4810300068616801F481
:1083C0004031084306491031086000BF012F05D134
:1083D0000348006820F0805001490860002055E7FC
:1083E00024380240007000400000474270B5044647
:1083F0000D460026B348006800F00100A84218D2DC
:1084000000BF012D05D1AF48006840F00400AD4920
:108410000860AC48006820F001002843A9490860C2
:1084200000BF0846006800F00100A84201D001200A
:1084300070BD207800F00200022807D1A248006831
:1084400020F0F000A16808439F490860207800F000
:10845000010000287BD06068022821D12020010380
:1084600091FAA1F1B1FA81F108430121B1EB601F4A
:1084700003D195480838006802E093482C30006822
:1084800020210A0392FAA2F2B2FA82F2114301F019
:108490001F0201219140084000286CD10120C7E74C
:1084A0006068032820D12020010591FAA1F1B1FADA
:1084B00081F108430121B1EB601F03D182480838E4
:1084C000006802E080482C30006820210A0592FAFA
:1084D000A2F2B2FA82F2114301F01F02012191408F
:1084E0000840A8BB0120A3E76068012820D1202014
:1084F000022191FAA1F1B1FA81F108430121B1EB16
:10850000601F03D170480838006802E06E482C30C4
:1085100000682021022292FAA2F2B2FA82F21143FA
:1085200001F01F0201219140084088B901207FE736
:108530002020010191FAA1F1B1FA81F10843012152
:10854000B1EB601F05D160480838006804E069E0BD
:1085500011E05D482C30006820210A0192FAA2F255
:10856000B2FA82F2114301F01F020121914008404A
:1085700008B901205CE75448006820F003006168F6
:10858000084351490860FFF71FFD0646606802284E
:1085900010D108E0FFF718FD801B41F288318842B6
:1085A00001D9032044E74848006800F00C0008287F
:1085B000F0D137E06068032810D108E0FFF704FD30
:1085C000801B41F28831884201D9032030E73E48C0
:1085D000006800F00C000C28F0D123E0606801284E
:1085E00010D108E0FFF7F0FC801B41F2883188428F
:1085F00001D903201CE73448006800F00C0004286F
:10860000F0D10FE008E0FFF7DFFC801B41F288317A
:10861000884201D903200BE72B48006800F00C00CA
:108620000028F0D12748006800F00100A84218D9BE
:1086300000BF012D05D12348006840F00400214906
:1086400008602048006820F0010028431D490860A8
:1086500000BF0846006800F00100A84201D00120D8
:10866000E6E6207800F00400042807D116480068E8
:1086700020F4E060E168084313490860207800F0C6
:108680000800082808D11048006820F460502169CB
:1086900040EAC1000C49086000F09AF80A490968EC
:1086A00001F0F001F02292FAA2F2B2FA82F2D14085
:1086B000064A515CC840064908600F20FFF7DCFC01
:1086C0000020B5E6003C0240083802402BCA0108F1
:1086D000580000202048006840F480701E4908605F
:1086E0001D480830006820F003001B49083108606D
:1086F00019480068194908401749086000201649C0
:1087000008310860081F00681549084000214FF033
:108710007F4292FAA2F2B2FA82F2914041F42041F1
:1087200008430D49091D08600846006820F4F85008
:1087300010214FF4F85292FAA2F2B2FA82F291406A
:1087400008430549091D0860002003490C310860F1
:10875000044805490860704700380240FEFFFAEE01
:10876000FF1FFF0068FF1F0058000020014800683D
:10877000704700005800002000B5FFF7F7FF0749D9
:10878000096801F4E0614FF4E06292FAA2F2B2FAF1
:1087900082F2D140024A515CC84000BD0838024014
:1087A0003BCA010800B5FFF7E1FF0749096801F47A
:1087B00060514FF4605292FAA2F2B2FA82F2D140C2
:1087C000024A515CC84000BD083802403BCA01085B
:1087D000F0B5002100230024002200250020254EB2
:1087E000316801F00C067EB3042E04D0082E04D0AC
:1087F0000C2E2AD103E020483AE0204838E001F46A
:1088000070164FF4701797FAA7F7B7FA87F7FE407C
:108810001B4FBB5D01F440064FF4400797FAA7F7E2
:10882000B7FA87F7FE40741C124E366806F480369D
:1088300026B1124E5E43B6FBF4F203E00E4E5E43E9
:10884000B6FBF4F2104613E000E000BF094E361FFD
:10885000366806F460464FF4604797FAA7F7B7FA10
:1088600087F726FA07F56E1C0127B740F80300BF0B
:1088700000BFF0BD083802400024F40000127A0066
:1088800022CA0108F8B504460025207800F001004E
:10889000002879D0F748006800F00C0008280CD0B8
:1088A000F448006800F00C000C282BD1F148006857
:1088B00000F48030B0F5803F24D12020010391FAEC
:1088C000A1F1B1FA81F108430121B1EB601F03D19D
:1088D000E8480838006802E0E6482C3000682021AB
:1088E0000A0392FAA2F2B2FA82F2114301F01F02D5
:1088F0000121914008400028CBD06068002843D176
:108900000120F8BD00BF6068012808D1D9480838A7
:10891000006840F48030D749083908602DE060686D
:1089200068B9D4480838006820F48030D149083943
:1089300008600846006820F4802008601DE0606838
:1089400005280DD1CB480838006840F48020C9497B
:10895000083908600846006840F4803008600CE080
:10896000C4480838006820F48030C24908390860DB
:108970000846006820F48020086000BF606860B38B
:10898000FFF722FB054607E052E0FFF71DFB401B07
:10899000642801D90320B4E72020010391FAA1F152
:1089A000B1FA81F108430121B1EB601F03D1B14855
:1089B0000838006802E0AF482C30006820210A0324
:1089C00092FAA2F2B2FA82F2114301F01F020121DF
:1089D000914008400028D8D02AE0FFF7F5FA054674
:1089E00006E0FFF7F1FA401B642801D9032088E76D
:1089F0002020010391FAA1F1B1FA81F1084301218C
:108A0000B1EB601F03D19B480838006802E0994829
:108A10002C30006820210A0392FAA2F2B2FA82F204
:108A2000114301F01F020121914008400028D8D1D4
:108A3000207800F00200022845D18E48006800F03E
:108A40000C0004280AD08B48006800F00C000C28A9
:108A50003BD18848006800F48030A8BB2020022168
:108A600091FAA1F1B1FA81F108430121B1EB601F44
:108A700003D180480838006802E07E482C30006846
:108A80002021022292FAA2F2B2FA82F2114301F0FC
:108A90001F0201219140084020B1E068012801D067
:108AA00001202EE77348001F006820F4F8504FF4AF
:108AB000F85292FAA2F2B2FA82F221699140084386
:108AC0006C49091F08607DE0FFE7E068F0B3012012
:108AD00090FAA0F1B1FA81F1674A42F82100FFF75C
:108AE00073FA054606E0FFF76FFA401B022801D92A
:108AF000032006E72020022191FAA1F1B1FA81F1C9
:108B000008430121B1EB601F03D15A4808380068BF
:108B100002E058482C3000682021022292FAA2F28A
:108B2000B2FA82F2114301F01F0201219140084084
:108B30000028D8D04F48001F006820F4F8504FF4A8
:108B4000F85292FAA2F2B2FA82F200E006E021694B
:108B5000914008434749091F086033E00020012184
:108B600091FAA1F1B1FA81F1434A42F82100FFF7ED
:108B70002BFA054606E0FFF727FA401B022801D929
:108B80000320BEE62020022191FAA1F1B1FA81F181
:108B900008430121B1EB601F03D136480838006853
:108BA00002E034482C3000682021022292FAA2F21E
:108BB000B2FA82F2114301F01F02012191400840F4
:108BC0000028D8D1207800F01000102873D129484F
:108BD000006800F00C0000286ED12020010191FAFD
:108BE000A1F1B1FA81F108430121B1EB601F03D17A
:108BF00020480838006802E01E482C300068202118
:108C00000A0192FAA2F2B2FA82F2114301F01F02B3
:108C100001219140084018B1A06908B9012070E60F
:108C20001449091F206A096801F46041884225D966
:108C3000206A0AF013FE08B1012062E60D48001F09
:108C4000006820F46040216A08430A49091F08604F
:108C50000846006820F07F404FF07F4292FAA2F26F
:108C6000B2FA82F2E169914008430249091F0860A3
:108C700023E000000838024000004742FC4800683A
:108C800020F46040216A0843F949086008460068FA
:108C900020F07F404FF07F4292FAA2F2B2FA82F2C5
:108CA000E16991400843F2490860206A0AF0D6FD64
:108CB00018B1012025E6A5E01FE04FF4604191FACC
:108CC000A1F1B1FA81F1206AC840401C0121814024
:108CD000C803E749091D096801F0F001F02292FA82
:108CE000A2F2B2FA82F2D140E24A515CC840E249B3
:108CF00008600F20FFF7C0F984E0A069F0B30120FD
:108D0000010291FAA1F1B1FA81F1DC4A42F82100A5
:108D1000FFF75AF9054606E0FFF756F9401B02280F
:108D200001D90320EDE52020010191FAA1F1B1FA6A
:108D300081F108430121B1EB601F03D1CC48001F32
:108D4000006802E0CA483030006820210A0192FA27
:108D5000A2F2B2FA82F2114301F01F020121914006
:108D600008400028D8D0C248006820F46040216A3A
:108D70000843BF4908600846006800E00DE020F0A5
:108D80007F404FF07F4292FAA2F2B2FA82F2E1699A
:108D900091400843B649086034E000204FF48071E8
:108DA00091FAA1F1B1FA81F1B44A42F82100FFF73A
:108DB0000BF9054606E0FFF707F9401B022801D929
:108DC00003209EE52020010191FAA1F1B1FA81F181
:108DD00008430121B1EB601F03D1A548001F0068C3
:108DE00002E0A3483030006820210A0192FAA2F282
:108DF000B2FA82F2114301F01F02012191400840B2
:108E00000028D8D1207800F0080008286ED16069C9
:108E1000A8B3012090FAA0F1B1FA81F1974A02EBD0
:108E20008101C1F88006FFF7CFF8054606E0FFF79D
:108E3000CBF8401B022801D9032062E54020022123
:108E400091FAA1F1B1FA81F108430121B1EB601F60
:108E500003D18748001F006802E085483030006871
:108E60004021022292FAA2F2B2FA82F2114301F0F8
:108E70001F020121914008400028D8D036E0FFE7CA
:108E80000021012090FAA0F0B0FA80F07B4A02EBBA
:108E90008000C0F88016FFF797F8054606E0FFF758
:108EA00093F8401B022801D903202AE54020022123
:108EB00091FAA1F1B1FA81F108430121B1EB601FF0
:108EC00003D16B48001F006802E069483030006839
:108ED0004021022292FAA2F2B2FA82F2114301F088
:108EE0001F020121914008400028D8D1207800F0CD
:108EF0000400042875D100265D482030006800F089
:108F0000805080B900BF5A482030006840F080503F
:108F10005749203108600846006800F080500090F2
:108F200000BF00BF01265648006800F48070B0B949
:108F30005348006840F4807051490860FFF744F8D6
:108F4000054606E0FFF740F8401B642801D90320DE
:108F5000D7E44B48006800F480700028F2D000BFCE
:108F6000A068012808D142483030006840F4807081
:108F70003F49303108602DE0A06868B93C48303086
:108F8000006820F480703A49303108600846006873
:108F900020F4806008601DE0A06805280DD13448E9
:108FA0003030006840F48060314930310860084654
:108FB000006840F4807008600CE02D483030006894
:108FC00020F480702A49303108600846006820F497
:108FD0008060086000BFA06870B3FEF7F5FF05462B
:108FE00009E06AE0FEF7F0FF401B41F28831884259
:108FF00001D9032085E44020C10091FAA1F1B1FA22
:1090000081F108430121B1EB601F03D11848001F13
:10901000006802E01648303000684021CA0092FA29
:10902000A2F2B2FA82F2114301F01F020121914033
:1090300008400028D6D035E0FEF7C6FF054608E018
:10904000FEF7C2FF401B41F28831884201D903205C
:1090500057E44020C10091FAA1F1B1FA81F108432F
:109060000121B1EB601F0DD10148001F00680BE02A
:10907000043802402BCA0108580000200000474273
:10908000007000406C4800684021CA0092FAA2F2C9
:10909000B2FA82F2114301F01F020121914008400F
:1090A0000028CDD1012E07D163481038006820F088
:1090B000805061491039086000BF606AF0B35E48B3
:1090C0002C38006800F00C000C287AD0606A022866
:1090D00079D100204FF0807191FAA1F1B1FA81F1BC
:1090E000564A42F82100FEF76FFF054606E0FEF7FC
:1090F0006BFF401B022801D9032002E42020010558
:1091000091FAA1F1B1FA81F108430121B1EB601F9D
:1091100003D149483438006801E0474800682021FD
:109120000A0592FAA2F2B2FA82F2114301F01F028A
:109130000121914008400028D9D100E07AE0D4E92B
:109140000A010843216B08433B492C39096821F483
:109150007D01084338492C3908600120010691FA45
:10916000A1F1B1FA81F1354A42F82100FEF72CFF56
:10917000054606E0FEF728FF401B022801D9032020
:1091800009E42020010591FAA1F1B1FA81F1084327
:109190000121B1EB601F03D127483438006801E09A
:1091A0002548006820210A0592FAA2F2B2FA82F25A
:1091B000114301F01F020121914008400028D9D03D
:1091C00038E035E0FFE700214FF0807090FAA0F022
:1091D000B0FA80F0194A42F82010FEF7F5FE054675
:1091E00006E0FEF7F1FE401B022801D9032058E4F7
:1091F0002020010591FAA1F1B1FA81F10843012182
:10920000B1EB601F03D10C483438006801E00A4814
:10921000006820210A0592FAA2F2B2FA82F2114302
:1092200001F01F020121914008400028D9D101E03E
:10923000012036E4002034E4343802400000474284
:10924000704702460023106800F1500303EB8103CE
:109250001868704710B50023046804F1500303EB4D
:1092600081031A6010BD70B50446002500BF207F41
:10927000012801D1022070BD0120207700BF02200B
:10928000607700BFCA202168486253202168486285
:1092900000BF2068806820F48060216888602068B2
:1092A000806820F4804021688860FEF78DFE0546C6
:1092B00012E0FEF789FE401BB0F57A7F0CD900BFA3
:1092C000FF202168486200BF0320607700BF0020B4
:1092D000207700BF0320CEE72068C068C0F380007D
